{
  "_format": "hh-sol-artifact-1",
  "contractName": "DAO",
  "sourceName": "contracts/DAO.sol",
  "abi": [
    {
      "inputs": [
        {
          "internalType": "address",
          "name": "GovernorToken",
          "type": "address"
        }
      ],
      "stateMutability": "payable",
      "type": "constructor"
    },
    {
      "stateMutability": "payable",
      "type": "fallback"
    },
    {
      "inputs": [],
      "name": "Governor",
      "outputs": [
        {
          "internalType": "address",
          "name": "",
          "type": "address"
        }
      ],
      "stateMutability": "view",
      "type": "function"
    },
    {
      "inputs": [],
      "name": "account",
      "outputs": [
        {
          "internalType": "address",
          "name": "",
          "type": "address"
        }
      ],
      "stateMutability": "view",
      "type": "function"
    },
    {
      "inputs": [
        {
          "internalType": "uint256",
          "name": "_proposalId",
          "type": "uint256"
        },
        {
          "internalType": "uint256",
          "name": "votes",
          "type": "uint256"
        }
      ],
      "name": "addNoVotes",
      "outputs": [],
      "stateMutability": "nonpayable",
      "type": "function"
    },
    {
      "inputs": [
        {
          "internalType": "uint256",
          "name": "_proposalId",
          "type": "uint256"
        },
        {
          "internalType": "uint256",
          "name": "votes",
          "type": "uint256"
        }
      ],
      "name": "addYesVotes",
      "outputs": [],
      "stateMutability": "nonpayable",
      "type": "function"
    },
    {
      "inputs": [
        {
          "internalType": "string",
          "name": "_title",
          "type": "string"
        },
        {
          "internalType": "uint256",
          "name": "_amount",
          "type": "uint256"
        },
        {
          "internalType": "address",
          "name": "_addressTo",
          "type": "address"
        },
        {
          "internalType": "string",
          "name": "_description",
          "type": "string"
        }
      ],
      "name": "createProposal",
      "outputs": [
        {
          "internalType": "uint256",
          "name": "",
          "type": "uint256"
        }
      ],
      "stateMutability": "nonpayable",
      "type": "function"
    },
    {
      "inputs": [
        {
          "internalType": "uint256",
          "name": "proposalIndex",
          "type": "uint256"
        }
      ],
      "name": "executeProposal",
      "outputs": [],
      "stateMutability": "nonpayable",
      "type": "function"
    },
    {
      "inputs": [],
      "name": "getBalance",
      "outputs": [
        {
          "internalType": "uint256",
          "name": "balance",
          "type": "uint256"
        }
      ],
      "stateMutability": "view",
      "type": "function"
    },
    {
      "inputs": [],
      "name": "numProposals",
      "outputs": [
        {
          "internalType": "uint256",
          "name": "",
          "type": "uint256"
        }
      ],
      "stateMutability": "view",
      "type": "function"
    },
    {
      "inputs": [
        {
          "internalType": "uint256",
          "name": "",
          "type": "uint256"
        }
      ],
      "name": "proposals",
      "outputs": [
        {
          "internalType": "uint256",
          "name": "proposalId",
          "type": "uint256"
        },
        {
          "internalType": "uint256",
          "name": "amount",
          "type": "uint256"
        },
        {
          "internalType": "uint256",
          "name": "deadline",
          "type": "uint256"
        },
        {
          "internalType": "uint256",
          "name": "yesVotes",
          "type": "uint256"
        },
        {
          "internalType": "uint256",
          "name": "noVotes",
          "type": "uint256"
        },
        {
          "internalType": "string",
          "name": "title",
          "type": "string"
        },
        {
          "internalType": "string",
          "name": "description",
          "type": "string"
        },
        {
          "internalType": "address",
          "name": "addressTo",
          "type": "address"
        },
        {
          "internalType": "bool",
          "name": "executed",
          "type": "bool"
        }
      ],
      "stateMutability": "view",
      "type": "function"
    },
    {
      "inputs": [
        {
          "internalType": "uint256",
          "name": "proposalIndex",
          "type": "uint256"
        },
        {
          "internalType": "enum DAO.Vote",
          "name": "vote",
          "type": "uint8"
        }
      ],
      "name": "voteOnProposal",
      "outputs": [],
      "stateMutability": "nonpayable",
      "type": "function"
    },
    {
      "stateMutability": "payable",
      "type": "receive"
    }
  ],
  "bytecode": "0x608060405273dd2fd4581271e230360230f9337d5c0430bf44c0600260006101000a81548173ffffffffffffffffffffffffffffffffffffffff021916908373ffffffffffffffffffffffffffffffffffffffff160217905550604051620019123803806200191283398181016040528101906200007e9190620000dc565b806000806101000a81548173ffffffffffffffffffffffffffffffffffffffff021916908373ffffffffffffffffffffffffffffffffffffffff1602179055505062000156565b600081519050620000d6816200013c565b92915050565b600060208284031215620000ef57600080fd5b6000620000ff84828501620000c5565b91505092915050565b600062000115826200011c565b9050919050565b600073ffffffffffffffffffffffffffffffffffffffff82169050919050565b620001478162000108565b81146200015357600080fd5b50565b6117ac80620001666000396000f3fe6080604052600436106100955760003560e01c80634239cc9b116100595780634239cc9b1461018b5780635dab2420146101b457806364f402c9146101df5780637f9d7a8d1461020a578063efafb22e146102475761009c565b8063013cf08b1461009e57806309b795c7146100e35780630d61b5191461010c57806312065fe014610135578063400e3949146101605761009c565b3661009c57005b005b3480156100aa57600080fd5b506100c560048036038101906100c0919061100b565b610270565b6040516100da999897969594939291906112e9565b60405180910390f35b3480156100ef57600080fd5b5061010a60048036038101906101059190611099565b6103fb565b005b34801561011857600080fd5b50610133600480360381019061012e919061100b565b610524565b005b34801561014157600080fd5b5061014a6107fc565b60405161015791906112ce565b60405180910390f35b34801561016c57600080fd5b506101756108ad565b60405161018291906112ce565b60405180910390f35b34801561019757600080fd5b506101b260048036038101906101ad9190611099565b6108b3565b005b3480156101c057600080fd5b506101c96109dc565b6040516101d691906111ea565b60405180910390f35b3480156101eb57600080fd5b506101f4610a02565b60405161020191906111ea565b60405180910390f35b34801561021657600080fd5b50610231600480360381019061022c9190610f78565b610a28565b60405161023e91906112ce565b60405180910390f35b34801561025357600080fd5b5061026e6004803603810190610269919061105d565b610bfd565b005b60036020528060005260406000206000915090508060000154908060010154908060020154908060030154908060040154908060050180546102b19061150a565b80601f01602080910402602001604051908101604052809291908181526020018280546102dd9061150a565b801561032a5780601f106102ff5761010080835404028352916020019161032a565b820191906000526020600020905b81548152906001019060200180831161030d57829003601f168201915b50505050509080600601805461033f9061150a565b80601f016020809104026020016040519081016040528092919081815260200182805461036b9061150a565b80156103b85780601f1061038d576101008083540402835291602001916103b8565b820191906000526020600020905b81548152906001019060200180831161039b57829003601f168201915b5050505050908060070160009054906101000a900473ffffffffffffffffffffffffffffffffffffffff16908060070160149054906101000a900460ff16905089565b600060036000848152602001908152602001600020905060018160080160003373ffffffffffffffffffffffffffffffffffffffff1673ffffffffffffffffffffffffffffffffffffffff16815260200190815260200160002060006101000a81548160ff02191690831515021790556104aa576040517f08c379a00000000000000000000000000000000000000000000000000000000081526004016104a19061128e565b60405180910390fd5b818160030160008282546104be91906113f6565b9250508190555060018160080160003373ffffffffffffffffffffffffffffffffffffffff1673ffffffffffffffffffffffffffffffffffffffff16815260200190815260200160002060006101000a81548160ff021916908315150217905550505050565b80426003600083815260200190815260200160002060020154111561057e576040517f08c379a00000000000000000000000000000000000000000000000000000000081526004016105759061122e565b60405180910390fd5b600015156003600083815260200190815260200160002060070160149054906101000a900460ff161515146105e8576040517f08c379a00000000000000000000000000000000000000000000000000000000081526004016105df9061124e565b60405180910390fd5b600060036000848152602001908152602001600020905060008054906101000a900473ffffffffffffffffffffffffffffffffffffffff1673ffffffffffffffffffffffffffffffffffffffff166370a08231306040518263ffffffff1660e01b815260040161065891906111ea565b60206040518083038186803b15801561067057600080fd5b505afa158015610684573d6000803e3d6000fd5b505050506040513d601f19601f820116820180604052508101906106a89190611034565b8160010154106106ed576040517f08c379a00000000000000000000000000000000000000000000000000000000081526004016106e4906112ae565b60405180910390fd5b6000816001015490508160040154826003015411156107d95760008054906101000a900473ffffffffffffffffffffffffffffffffffffffff1673ffffffffffffffffffffffffffffffffffffffff1663a9059cbb8360070160009054906101000a900473ffffffffffffffffffffffffffffffffffffffff16836040518363ffffffff1660e01b8152600401610785929190611205565b602060405180830381600087803b15801561079f57600080fd5b505af11580156107b3573d6000803e3d6000fd5b505050506040513d601f19601f820116820180604052508101906107d79190610f4f565b505b60018260070160146101000a81548160ff02191690831515021790555050505050565b60008060009054906101000a900473ffffffffffffffffffffffffffffffffffffffff1673ffffffffffffffffffffffffffffffffffffffff166370a08231336040518263ffffffff1660e01b815260040161085891906111ea565b60206040518083038186803b15801561087057600080fd5b505afa158015610884573d6000803e3d6000fd5b505050506040513d601f19601f820116820180604052508101906108a89190611034565b905090565b60045481565b600060036000848152602001908152602001600020905060018160080160003373ffffffffffffffffffffffffffffffffffffffff1673ffffffffffffffffffffffffffffffffffffffff16815260200190815260200160002060006101000a81548160ff0219169083151502179055610962576040517f08c379a00000000000000000000000000000000000000000000000000000000081526004016109599061128e565b60405180910390fd5b8181600401600082825461097691906113f6565b9250508190555060018160080160003373ffffffffffffffffffffffffffffffffffffffff1673ffffffffffffffffffffffffffffffffffffffff16815260200190815260200160002060006101000a81548160ff021916908315150217905550505050565b600260009054906101000a900473ffffffffffffffffffffffffffffffffffffffff1681565b600160009054906101000a900473ffffffffffffffffffffffffffffffffffffffff1681565b600080600360006004548152602001908152602001600020905060008054906101000a900473ffffffffffffffffffffffffffffffffffffffff1673ffffffffffffffffffffffffffffffffffffffff166370a08231306040518263ffffffff1660e01b8152600401610a9b91906111ea565b60206040518083038186803b158015610ab357600080fd5b505afa158015610ac7573d6000803e3d6000fd5b505050506040513d601f19601f82011682018060405250810190610aeb9190611034565b8510610b2c576040517f08c379a0000000000000000000000000000000000000000000000000000000008152600401610b23906112ae565b60405180910390fd5b600454816000018190555084816001018190555061025842610b4e91906113f6565b8160020181905550838160070160006101000a81548173ffffffffffffffffffffffffffffffffffffffff021916908373ffffffffffffffffffffffffffffffffffffffff16021790555085816005019080519060200190610bb1929190610ddb565b5082816006019080519060200190610bca929190610ddb565b5060046000815480929190610bde9061156d565b91905055506001600454610bf2919061144c565b915050949350505050565b8142600360008381526020019081526020016000206002015411610c56576040517f08c379a0000000000000000000000000000000000000000000000000000000008152600401610c4d9061126e565b60405180910390fd5b600060036000858152602001908152602001600020905060008060008054906101000a900473ffffffffffffffffffffffffffffffffffffffff1673ffffffffffffffffffffffffffffffffffffffff166370a08231336040518263ffffffff1660e01b8152600401610cc991906111ea565b60206040518083038186803b158015610ce157600080fd5b505afa158015610cf5573d6000803e3d6000fd5b505050506040513d601f19601f82011682018060405250810190610d199190611034565b905080915060006001811115610d58577f4e487b7100000000000000000000000000000000000000000000000000000000600052602160045260246000fd5b856001811115610d91577f4e487b7100000000000000000000000000000000000000000000000000000000600052602160045260246000fd5b1415610db75781836003016000828254610dab91906113f6565b92505081905550610dd3565b81836004016000828254610dcb91906113f6565b925050819055505b505050505050565b828054610de79061150a565b90600052602060002090601f016020900481019282610e095760008555610e50565b82601f10610e2257805160ff1916838001178555610e50565b82800160010185558215610e50579182015b82811115610e4f578251825591602001919060010190610e34565b5b509050610e5d9190610e61565b5090565b5b80821115610e7a576000816000905550600101610e62565b5090565b6000610e91610e8c846113a9565b611384565b905082815260208101848484011115610ea957600080fd5b610eb48482856114c8565b509392505050565b600081359050610ecb81611721565b92915050565b600081519050610ee081611738565b92915050565b600081359050610ef58161174f565b92915050565b600082601f830112610f0c57600080fd5b8135610f1c848260208601610e7e565b91505092915050565b600081359050610f348161175f565b92915050565b600081519050610f498161175f565b92915050565b600060208284031215610f6157600080fd5b6000610f6f84828501610ed1565b91505092915050565b60008060008060808587031215610f8e57600080fd5b600085013567ffffffffffffffff811115610fa857600080fd5b610fb487828801610efb565b9450506020610fc587828801610f25565b9350506040610fd687828801610ebc565b925050606085013567ffffffffffffffff811115610ff357600080fd5b610fff87828801610efb565b91505092959194509250565b60006020828403121561101d57600080fd5b600061102b84828501610f25565b91505092915050565b60006020828403121561104657600080fd5b600061105484828501610f3a565b91505092915050565b6000806040838503121561107057600080fd5b600061107e85828601610f25565b925050602061108f85828601610ee6565b9150509250929050565b600080604083850312156110ac57600080fd5b60006110ba85828601610f25565b92505060206110cb85828601610f25565b9150509250929050565b6110de81611480565b82525050565b6110ed81611492565b82525050565b60006110fe826113da565b61110881856113e5565b93506111188185602086016114d7565b61112181611643565b840191505092915050565b60006111396015836113e5565b915061114482611654565b602082019050919050565b600061115c6019836113e5565b91506111678261167d565b602082019050919050565b600061117f6011836113e5565b915061118a826116a6565b602082019050919050565b60006111a2600d836113e5565b91506111ad826116cf565b602082019050919050565b60006111c56019836113e5565b91506111d0826116f8565b602082019050919050565b6111e4816114be565b82525050565b60006020820190506111ff60008301846110d5565b92915050565b600060408201905061121a60008301856110d5565b61122760208301846111db565b9392505050565b600060208201905081810360008301526112478161112c565b9050919050565b600060208201905081810360008301526112678161114f565b9050919050565b6000602082019050818103600083015261128781611172565b9050919050565b600060208201905081810360008301526112a781611195565b9050919050565b600060208201905081810360008301526112c7816111b8565b9050919050565b60006020820190506112e360008301846111db565b92915050565b6000610120820190506112ff600083018c6111db565b61130c602083018b6111db565b611319604083018a6111db565b61132660608301896111db565b61133360808301886111db565b81810360a083015261134581876110f3565b905081810360c083015261135981866110f3565b905061136860e08301856110d5565b6113766101008301846110e4565b9a9950505050505050505050565b600061138e61139f565b905061139a828261153c565b919050565b6000604051905090565b600067ffffffffffffffff8211156113c4576113c3611614565b5b6113cd82611643565b9050602081019050919050565b600081519050919050565b600082825260208201905092915050565b6000611401826114be565b915061140c836114be565b9250827fffffffffffffffffffffffffffffffffffffffffffffffffffffffffffffffff03821115611441576114406115b6565b5b828201905092915050565b6000611457826114be565b9150611462836114be565b925082821015611475576114746115b6565b5b828203905092915050565b600061148b8261149e565b9050919050565b60008115159050919050565b600073ffffffffffffffffffffffffffffffffffffffff82169050919050565b6000819050919050565b82818337600083830152505050565b60005b838110156114f55780820151818401526020810190506114da565b83811115611504576000848401525b50505050565b6000600282049050600182168061152257607f821691505b60208210811415611536576115356115e5565b5b50919050565b61154582611643565b810181811067ffffffffffffffff8211171561156457611563611614565b5b80604052505050565b6000611578826114be565b91507fffffffffffffffffffffffffffffffffffffffffffffffffffffffffffffffff8214156115ab576115aa6115b6565b5b600182019050919050565b7f4e487b7100000000000000000000000000000000000000000000000000000000600052601160045260246000fd5b7f4e487b7100000000000000000000000000000000000000000000000000000000600052602260045260246000fd5b7f4e487b7100000000000000000000000000000000000000000000000000000000600052604160045260246000fd5b6000601f19601f8301169050919050565b7f444541444c494e455f4e4f545f45584345454445440000000000000000000000600082015250565b7f50524f504f53414c5f414c52454144595f455845435554454400000000000000600082015250565b7f444541444c494e455f4558434545444544000000000000000000000000000000600082015250565b7f416c726561647920766f74656400000000000000000000000000000000000000600082015250565b7f4e6f7420656e6f75676820476f7665726e6f7220746f6b656e00000000000000600082015250565b61172a81611480565b811461173557600080fd5b50565b61174181611492565b811461174c57600080fd5b50565b6002811061175c57600080fd5b50565b611768816114be565b811461177357600080fd5b5056fea2646970667358221220d996c8d2485c49de71aa8138c3ff6a647f83320bf2811b71212b223e0439821764736f6c63430008040033",
  "linkReferences": {},
  "deployedLinkReferences": {}
}