{
  "_format": "hh-sol-artifact-1",
  "contractName": "DAO",
  "sourceName": "contracts/DAO.sol",
  "abi": [
    {
      "inputs": [
        {
          "internalType": "address",
          "name": "GovernorToken",
          "type": "address"
        }
      ],
      "stateMutability": "payable",
      "type": "constructor"
    },
    {
      "stateMutability": "payable",
      "type": "fallback"
    },
    {
      "inputs": [],
      "name": "Governor",
      "outputs": [
        {
          "internalType": "address",
          "name": "",
          "type": "address"
        }
      ],
      "stateMutability": "view",
      "type": "function"
    },
    {
      "inputs": [],
      "name": "account",
      "outputs": [
        {
          "internalType": "address",
          "name": "",
          "type": "address"
        }
      ],
      "stateMutability": "view",
      "type": "function"
    },
    {
      "inputs": [
        {
          "internalType": "uint256",
          "name": "_proposalId",
          "type": "uint256"
        },
        {
          "internalType": "uint256",
          "name": "votes",
          "type": "uint256"
        }
      ],
      "name": "addNoVotes",
      "outputs": [],
      "stateMutability": "nonpayable",
      "type": "function"
    },
    {
      "inputs": [
        {
          "internalType": "uint256",
          "name": "_proposalId",
          "type": "uint256"
        },
        {
          "internalType": "uint256",
          "name": "votes",
          "type": "uint256"
        }
      ],
      "name": "addYesVotes",
      "outputs": [],
      "stateMutability": "nonpayable",
      "type": "function"
    },
    {
      "inputs": [
        {
          "internalType": "string",
          "name": "_title",
          "type": "string"
        },
        {
          "internalType": "uint256",
          "name": "_amount",
          "type": "uint256"
        },
        {
          "internalType": "address",
          "name": "_addressTo",
          "type": "address"
        },
        {
          "internalType": "string",
          "name": "_description",
          "type": "string"
        }
      ],
      "name": "createProposal",
      "outputs": [
        {
          "internalType": "uint256",
          "name": "",
          "type": "uint256"
        }
      ],
      "stateMutability": "nonpayable",
      "type": "function"
    },
    {
      "inputs": [
        {
          "internalType": "uint256",
          "name": "proposalIndex",
          "type": "uint256"
        }
      ],
      "name": "executeProposal",
      "outputs": [],
      "stateMutability": "nonpayable",
      "type": "function"
    },
    {
      "inputs": [],
      "name": "getBalance",
      "outputs": [
        {
          "internalType": "uint256",
          "name": "balance",
          "type": "uint256"
        }
      ],
      "stateMutability": "view",
      "type": "function"
    },
    {
      "inputs": [],
      "name": "numProposals",
      "outputs": [
        {
          "internalType": "uint256",
          "name": "",
          "type": "uint256"
        }
      ],
      "stateMutability": "view",
      "type": "function"
    },
    {
      "inputs": [
        {
          "internalType": "uint256",
          "name": "",
          "type": "uint256"
        }
      ],
      "name": "proposals",
      "outputs": [
        {
          "internalType": "uint256",
          "name": "proposalId",
          "type": "uint256"
        },
        {
          "internalType": "uint256",
          "name": "amount",
          "type": "uint256"
        },
        {
          "internalType": "uint256",
          "name": "deadline",
          "type": "uint256"
        },
        {
          "internalType": "uint256",
          "name": "yesVotes",
          "type": "uint256"
        },
        {
          "internalType": "uint256",
          "name": "noVotes",
          "type": "uint256"
        },
        {
          "internalType": "string",
          "name": "title",
          "type": "string"
        },
        {
          "internalType": "string",
          "name": "description",
          "type": "string"
        },
        {
          "internalType": "address",
          "name": "addressTo",
          "type": "address"
        },
        {
          "internalType": "bool",
          "name": "executed",
          "type": "bool"
        }
      ],
      "stateMutability": "view",
      "type": "function"
    },
    {
      "inputs": [
        {
          "internalType": "uint256",
          "name": "proposalIndex",
          "type": "uint256"
        },
        {
          "internalType": "enum DAO.Vote",
          "name": "vote",
          "type": "uint8"
        }
      ],
      "name": "voteOnProposal",
      "outputs": [],
      "stateMutability": "nonpayable",
      "type": "function"
    },
    {
      "stateMutability": "payable",
      "type": "receive"
    }
  ],
  "bytecode": "0x608060405273dd2fd4581271e230360230f9337d5c0430bf44c0600260006101000a81548173ffffffffffffffffffffffffffffffffffffffff021916908373ffffffffffffffffffffffffffffffffffffffff16021790555060405162001a9038038062001a9083398181016040528101906200007e91906200012f565b806000806101000a81548173ffffffffffffffffffffffffffffffffffffffff021916908373ffffffffffffffffffffffffffffffffffffffff1602179055505062000161565b600080fd5b600073ffffffffffffffffffffffffffffffffffffffff82169050919050565b6000620000f782620000ca565b9050919050565b6200010981620000ea565b81146200011557600080fd5b50565b6000815190506200012981620000fe565b92915050565b600060208284031215620001485762000147620000c5565b5b6000620001588482850162000118565b91505092915050565b61191f80620001716000396000f3fe6080604052600436106100955760003560e01c80634239cc9b116100595780634239cc9b1461018b5780635dab2420146101b457806364f402c9146101df5780637f9d7a8d1461020a578063efafb22e146102475761009c565b8063013cf08b1461009e57806309b795c7146100e35780630d61b5191461010c57806312065fe014610135578063400e3949146101605761009c565b3661009c57005b005b3480156100aa57600080fd5b506100c560048036038101906100c09190610d7f565b610270565b6040516100da99989796959493929190610ea7565b60405180910390f35b3480156100ef57600080fd5b5061010a60048036038101906101059190610f42565b6103fb565b005b34801561011857600080fd5b50610133600480360381019061012e9190610d7f565b610524565b005b34801561014157600080fd5b5061014a6107de565b6040516101579190610f82565b60405180910390f35b34801561016c57600080fd5b50610175610880565b6040516101829190610f82565b60405180910390f35b34801561019757600080fd5b506101b260048036038101906101ad9190610f42565b610886565b005b3480156101c057600080fd5b506101c96109af565b6040516101d69190610f9d565b60405180910390f35b3480156101eb57600080fd5b506101f46109d5565b6040516102019190610f9d565b60405180910390f35b34801561021657600080fd5b50610231600480360381019061022c9190611119565b6109fb565b60405161023e9190610f82565b60405180910390f35b34801561025357600080fd5b5061026e600480360381019061026991906111dd565b610bb3565b005b60036020528060005260406000206000915090508060000154908060010154908060020154908060030154908060040154908060050180546102b19061124c565b80601f01602080910402602001604051908101604052809291908181526020018280546102dd9061124c565b801561032a5780601f106102ff5761010080835404028352916020019161032a565b820191906000526020600020905b81548152906001019060200180831161030d57829003601f168201915b50505050509080600601805461033f9061124c565b80601f016020809104026020016040519081016040528092919081815260200182805461036b9061124c565b80156103b85780601f1061038d576101008083540402835291602001916103b8565b820191906000526020600020905b81548152906001019060200180831161039b57829003601f168201915b5050505050908060070160009054906101000a900473ffffffffffffffffffffffffffffffffffffffff16908060070160149054906101000a900460ff16905089565b600060036000848152602001908152602001600020905060018160080160003373ffffffffffffffffffffffffffffffffffffffff1673ffffffffffffffffffffffffffffffffffffffff16815260200190815260200160002060006101000a81548160ff02191690831515021790556104aa576040517f08c379a00000000000000000000000000000000000000000000000000000000081526004016104a1906112c9565b60405180910390fd5b818160030160008282546104be9190611318565b9250508190555060018160080160003373ffffffffffffffffffffffffffffffffffffffff1673ffffffffffffffffffffffffffffffffffffffff16815260200190815260200160002060006101000a81548160ff021916908315150217905550505050565b80426003600083815260200190815260200160002060020154111561057e576040517f08c379a000000000000000000000000000000000000000000000000000000000815260040161057590611398565b60405180910390fd5b600015156003600083815260200190815260200160002060070160149054906101000a900460ff161515146105e8576040517f08c379a00000000000000000000000000000000000000000000000000000000081526004016105df90611404565b60405180910390fd5b600060036000848152602001908152602001600020905060008054906101000a900473ffffffffffffffffffffffffffffffffffffffff1673ffffffffffffffffffffffffffffffffffffffff166370a08231306040518263ffffffff1660e01b81526004016106589190610f9d565b602060405180830381865afa158015610675573d6000803e3d6000fd5b505050506040513d601f19601f820116820180604052508101906106999190611439565b8160010154106106de576040517f08c379a00000000000000000000000000000000000000000000000000000000081526004016106d5906114b2565b60405180910390fd5b6000816001015490508160040154826003015411156107bb5760008054906101000a900473ffffffffffffffffffffffffffffffffffffffff1673ffffffffffffffffffffffffffffffffffffffff1663a9059cbb8360070160009054906101000a900473ffffffffffffffffffffffffffffffffffffffff16836040518363ffffffff1660e01b81526004016107769291906114d2565b6020604051808303816000875af1158015610795573d6000803e3d6000fd5b505050506040513d601f19601f820116820180604052508101906107b99190611527565b505b60018260070160146101000a81548160ff02191690831515021790555050505050565b60008060009054906101000a900473ffffffffffffffffffffffffffffffffffffffff1673ffffffffffffffffffffffffffffffffffffffff166370a08231336040518263ffffffff1660e01b815260040161083a9190610f9d565b602060405180830381865afa158015610857573d6000803e3d6000fd5b505050506040513d601f19601f8201168201806040525081019061087b9190611439565b905090565b60045481565b600060036000848152602001908152602001600020905060018160080160003373ffffffffffffffffffffffffffffffffffffffff1673ffffffffffffffffffffffffffffffffffffffff16815260200190815260200160002060006101000a81548160ff0219169083151502179055610935576040517f08c379a000000000000000000000000000000000000000000000000000000000815260040161092c906112c9565b60405180910390fd5b818160040160008282546109499190611318565b9250508190555060018160080160003373ffffffffffffffffffffffffffffffffffffffff1673ffffffffffffffffffffffffffffffffffffffff16815260200190815260200160002060006101000a81548160ff021916908315150217905550505050565b600260009054906101000a900473ffffffffffffffffffffffffffffffffffffffff1681565b600160009054906101000a900473ffffffffffffffffffffffffffffffffffffffff1681565b600080600360006004548152602001908152602001600020905060008054906101000a900473ffffffffffffffffffffffffffffffffffffffff1673ffffffffffffffffffffffffffffffffffffffff166370a08231306040518263ffffffff1660e01b8152600401610a6e9190610f9d565b602060405180830381865afa158015610a8b573d6000803e3d6000fd5b505050506040513d601f19601f82011682018060405250810190610aaf9190611439565b8510610af0576040517f08c379a0000000000000000000000000000000000000000000000000000000008152600401610ae7906114b2565b60405180910390fd5b600454816000018190555084816001018190555061025842610b129190611318565b8160020181905550838160070160006101000a81548173ffffffffffffffffffffffffffffffffffffffff021916908373ffffffffffffffffffffffffffffffffffffffff16021790555085816005019081610b6e9190611700565b5082816006019081610b809190611700565b5060046000815480929190610b94906117d2565b91905055506001600454610ba8919061181a565b915050949350505050565b8142600360008381526020019081526020016000206002015411610c0c576040517f08c379a0000000000000000000000000000000000000000000000000000000008152600401610c039061189a565b60405180910390fd5b600060036000858152602001908152602001600020905060008060008054906101000a900473ffffffffffffffffffffffffffffffffffffffff1673ffffffffffffffffffffffffffffffffffffffff166370a08231336040518263ffffffff1660e01b8152600401610c7f9190610f9d565b602060405180830381865afa158015610c9c573d6000803e3d6000fd5b505050506040513d601f19601f82011682018060405250810190610cc09190611439565b905080915060006001811115610cd957610cd86118ba565b5b856001811115610cec57610ceb6118ba565b5b03610d115781836003016000828254610d059190611318565b92505081905550610d2d565b81836004016000828254610d259190611318565b925050819055505b505050505050565b6000604051905090565b600080fd5b600080fd5b6000819050919050565b610d5c81610d49565b8114610d6757600080fd5b50565b600081359050610d7981610d53565b92915050565b600060208284031215610d9557610d94610d3f565b5b6000610da384828501610d6a565b91505092915050565b610db581610d49565b82525050565b600081519050919050565b600082825260208201905092915050565b60005b83811015610df5578082015181840152602081019050610dda565b60008484015250505050565b6000601f19601f8301169050919050565b6000610e1d82610dbb565b610e278185610dc6565b9350610e37818560208601610dd7565b610e4081610e01565b840191505092915050565b600073ffffffffffffffffffffffffffffffffffffffff82169050919050565b6000610e7682610e4b565b9050919050565b610e8681610e6b565b82525050565b60008115159050919050565b610ea181610e8c565b82525050565b600061012082019050610ebd600083018c610dac565b610eca602083018b610dac565b610ed7604083018a610dac565b610ee46060830189610dac565b610ef16080830188610dac565b81810360a0830152610f038187610e12565b905081810360c0830152610f178186610e12565b9050610f2660e0830185610e7d565b610f34610100830184610e98565b9a9950505050505050505050565b60008060408385031215610f5957610f58610d3f565b5b6000610f6785828601610d6a565b9250506020610f7885828601610d6a565b9150509250929050565b6000602082019050610f976000830184610dac565b92915050565b6000602082019050610fb26000830184610e7d565b92915050565b600080fd5b600080fd5b7f4e487b7100000000000000000000000000000000000000000000000000000000600052604160045260246000fd5b610ffa82610e01565b810181811067ffffffffffffffff8211171561101957611018610fc2565b5b80604052505050565b600061102c610d35565b90506110388282610ff1565b919050565b600067ffffffffffffffff82111561105857611057610fc2565b5b61106182610e01565b9050602081019050919050565b82818337600083830152505050565b600061109061108b8461103d565b611022565b9050828152602081018484840111156110ac576110ab610fbd565b5b6110b784828561106e565b509392505050565b600082601f8301126110d4576110d3610fb8565b5b81356110e484826020860161107d565b91505092915050565b6110f681610e6b565b811461110157600080fd5b50565b600081359050611113816110ed565b92915050565b6000806000806080858703121561113357611132610d3f565b5b600085013567ffffffffffffffff81111561115157611150610d44565b5b61115d878288016110bf565b945050602061116e87828801610d6a565b935050604061117f87828801611104565b925050606085013567ffffffffffffffff8111156111a05761119f610d44565b5b6111ac878288016110bf565b91505092959194509250565b600281106111c557600080fd5b50565b6000813590506111d7816111b8565b92915050565b600080604083850312156111f4576111f3610d3f565b5b600061120285828601610d6a565b9250506020611213858286016111c8565b9150509250929050565b7f4e487b7100000000000000000000000000000000000000000000000000000000600052602260045260246000fd5b6000600282049050600182168061126457607f821691505b6020821081036112775761127661121d565b5b50919050565b7f416c726561647920766f74656400000000000000000000000000000000000000600082015250565b60006112b3600d83610dc6565b91506112be8261127d565b602082019050919050565b600060208201905081810360008301526112e2816112a6565b9050919050565b7f4e487b7100000000000000000000000000000000000000000000000000000000600052601160045260246000fd5b600061132382610d49565b915061132e83610d49565b9250828201905080821115611346576113456112e9565b5b92915050565b7f444541444c494e455f4e4f545f45584345454445440000000000000000000000600082015250565b6000611382601583610dc6565b915061138d8261134c565b602082019050919050565b600060208201905081810360008301526113b181611375565b9050919050565b7f50524f504f53414c5f414c52454144595f455845435554454400000000000000600082015250565b60006113ee601983610dc6565b91506113f9826113b8565b602082019050919050565b6000602082019050818103600083015261141d816113e1565b9050919050565b60008151905061143381610d53565b92915050565b60006020828403121561144f5761144e610d3f565b5b600061145d84828501611424565b91505092915050565b7f4e6f7420656e6f75676820476f7665726e6f7220746f6b656e00000000000000600082015250565b600061149c601983610dc6565b91506114a782611466565b602082019050919050565b600060208201905081810360008301526114cb8161148f565b9050919050565b60006040820190506114e76000830185610e7d565b6114f46020830184610dac565b9392505050565b61150481610e8c565b811461150f57600080fd5b50565b600081519050611521816114fb565b92915050565b60006020828403121561153d5761153c610d3f565b5b600061154b84828501611512565b91505092915050565b60008190508160005260206000209050919050565b60006020601f8301049050919050565b600082821b905092915050565b6000600883026115b67fffffffffffffffffffffffffffffffffffffffffffffffffffffffffffffffff82611579565b6115c08683611579565b95508019841693508086168417925050509392505050565b6000819050919050565b60006115fd6115f86115f384610d49565b6115d8565b610d49565b9050919050565b6000819050919050565b611617836115e2565b61162b61162382611604565b848454611586565b825550505050565b600090565b611640611633565b61164b81848461160e565b505050565b5b8181101561166f57611664600082611638565b600181019050611651565b5050565b601f8211156116b45761168581611554565b61168e84611569565b8101602085101561169d578190505b6116b16116a985611569565b830182611650565b50505b505050565b600082821c905092915050565b60006116d7600019846008026116b9565b1980831691505092915050565b60006116f083836116c6565b9150826002028217905092915050565b61170982610dbb565b67ffffffffffffffff81111561172257611721610fc2565b5b61172c825461124c565b611737828285611673565b600060209050601f83116001811461176a5760008415611758578287015190505b61176285826116e4565b8655506117ca565b601f19841661177886611554565b60005b828110156117a05784890151825560018201915060208501945060208101905061177b565b868310156117bd57848901516117b9601f8916826116c6565b8355505b6001600288020188555050505b505050505050565b60006117dd82610d49565b91507fffffffffffffffffffffffffffffffffffffffffffffffffffffffffffffffff820361180f5761180e6112e9565b5b600182019050919050565b600061182582610d49565b915061183083610d49565b9250828203905081811115611848576118476112e9565b5b92915050565b7f444541444c494e455f4558434545444544000000000000000000000000000000600082015250565b6000611884601183610dc6565b915061188f8261184e565b602082019050919050565b600060208201905081810360008301526118b381611877565b9050919050565b7f4e487b7100000000000000000000000000000000000000000000000000000000600052602160045260246000fdfea264697066735822122082885673d276ac113b1b73c05a3d3ae4323b17535bef48828b018ce0f215ae3364736f6c63430008110033",
  "linkReferences": {},
  "deployedLinkReferences": {}
}